:100000004EEF01F00000000000EF00F000000000E3
:0A0010000000000000000000F3D71C
:0E001C00C70E0D6E0D2EFED700000000120064
:10002A00560E0C6EB50E0D6E0D2EFED70C2EFCD78D
:06003A00000000001200AE
:0E004000030E0D6E0D2EFED700000000120004
:0A004E00000EACB2010E006E1200AD
:1000580052BE02D0839E01D0838E52BC02D0839CB4
:1000680001D0838C52BA02D0839A01D0838A52B8C5
:1000780002D0839801D0838839B002D0828201D01F
:1000880082928284D9DF829452B602D0839E01D0B4
:10009800838E52B402D0839C01D0838C52B202D09A
:1000A800839A01D0838A52B002D0839801D0838882
:1000B80039B002D0828201D082928284BDDF8294DC
:0C00C80039A002D0AEDF01D0A5DF12008D
:0A00D400000E9EBA010E006E12002D
:1000DE00AECF01F0ABA202D0AB98AB8801C000F05E
:0200EE001200FE
:1000F000F250026EF29E0500FF6A0150FE6E005043
:08010000FD6E02BEF28E12003A
:0C010800399051C052F0A4DF3980120081
:10011400949494929598959A959C959E82948292A3
:10012400839E839C839A83987EDF7DDF7CDF838A32
:100134008388828483DF829476DF82847FDF829463
:1001440072DF82847BDF82946EDF8398828476DF21
:10015400829469DF828472DF8294839A838E82849C
:100164006DDF829460DF839E8388828467DF82945C
:100174008398828463DF829456DF82845FDF829473
:10018400838882845BDF82944EDF8398828456DF87
:100194008294838E838C838A838882844FDF8294C3
:0601A40042DF3980120069
:1001AA00FF0E296EFF0E2A6EFF0E2B6EFF0E2C6EAF
:1001BA00DE0E356E000E366E000E376E000E386E8D
:1001CA00D40E316E000E326E000E336E000E346E97
:1001DA004E0E2D6E000E2E6E000E2F6E000E306E1D
:1001EA00AC8A900EAB6E948E949C9EAA03D0AECF2E
:0601FA0000F0FBD712002B
:100200000900F5CFE6FF0006FBE10106F9E1120067
:06021000AECF00F0120069
:0C02160031C000F032C001F068DF1200BF
:100222000FD0800E4C6E19D0C00E4C6E16D0940EAC
:100232004C6E13D0D40E4C6E10D0800E4C6E0DD07E
:100242004C50010AEEE04C50020AEEE04C50030A18
:10025200EEE04C50040AEEE0F0D74D04006E4C5034
:10026200002600C04CF000C052F0F5DE3990506A12
:1002720050504E24E96E000E4F20EA6EEE520BE013
:1002820050504E24E96E000E4F20EA6EEECF51F030
:0A0292003ADF502AEDD73980120040
:10029C00CFEC01F0B886040EB06EE10EAF6EAC84FC
:1002AC007EDF070E0B6E170E0C6E6A0E0D6E0D2E8A
:1002BC00FED70C2EFCD70B2EFAD700000F0EC11256
:1002CC00070EB412936A800E946E1EDF070E0B6E2F
:1002DC00170E0C6E6A0E0D6E0D2EFED70C2EFCD763
:1002EC000B2EFAD70000010E526EB0DE070E0B6E0D
:1002FC00170E0C6E6A0E0D6E0D2EFED70C2EFCD743
:10030C000B2EFAD700000C0E526EA0DE070E0B6EF1
:10031C00170E0C6E6A0E0D6E0D2EFED70C2EFCD722
:10032C000B2EFAD70000010E4C6E010E4D6E150E01
:10033C004E6E000E4F6E6FDF070E0B6E170E0C6EAF
:10034C006A0E0D6E0D2EFED70C2EFCD70B2EFAD787
:10035C000000020E4C6E010E4D6E1B0E4E6E000E0A
:10036C004F6E59DF3A6A3B6A50DF005204E04ADFB5
:0E037C0000C03CF0F9D73CC08AFFF4D7FFD791
:10039E0010EE15F0140E006E010E016E8A0EF66E42
:0E03AE00030EF76E000EF86E00EC01F0120068
:06038A00545547415300E9
:0E0390004B65726A61205072616B74656B0080
:020000040030CA
:0E000000000C1F1EFF8381FF0FC00FE00F409A
:00000001FF
